:100000000000022099010000D94500009D45000034
:100010009D4500009D4500009D4500009D45000058
:100020009D4500009D4500009D450000D94500000C
:10003000D94500009D450000D94500008D450000D0
:10004000D9450000D9450000D9450000D945000038
:10005000D9450000D9450000D9450000D945000028
:10006000D9450000D9450000D9450000D945000018
:10007000D9450000D9450000D9450000D945000008
:10008000D9450000D9450000D9450000D9450000F8
:10009000D9450000D9450000D9450000D9450000E8
:1000A000D9450000D9450000D9450000D9450000D8
:1000B000D9450000D9450000D9450000FD4E00009B
:1000C000D945000041710000D94500008554000069
:1000D000D9450000A5770000D9450000D9450000AA
:1000E000D9450000D9450000D9450000D945000098
:1000F000D9450000D9450000D9450000D945000088
:10010000D9450000D9450000D9450000D945000077
:10011000D945000035570000D9450000D9450000F9
:10012000D9450000D9450000D9450000D945000057
:10013000D9450000D9450000D9450000D945000047
:10014000D9450000D9450000F57C0000D9450000E4
:1001500045820000D9450000D9450000D94500007E
:10016000D9450000D9450000D9450000D945000017
:10017000D9450000D9450000D9450000D945000007
:10018000D9450000D9450000D9450000D9450000F7
:10019000D9450000D9450000584B4CF2205210B50B
:1001A0001A804DF628121A8000BF00BF04F018FA1A
:1001B000534B4FF030621A60524A9A60524ADA60EA
:1001C000524B4FF470021A60514B1A6812F480724D
:1001D00004D150490A604FF4A8521A604E4B1A7865
:1001E000110703D51A7842F008021A704B4B4C4C99
:1001F0004C482A221A704C4A00239918A14203D273
:10020000195899500433F8E7484B494900228B426A
:1002100002D243F8042BFAE74648474900235A58CC
:100220001A500433B3F5CC7FF9D1444B444A8021B2
:1002300003F8011B9342FBD1424B3E4A1A60424BEA
:100240008A221A70A3F5805324225A70A0221A70B1
:100250009A799207FCD59A79D406FCD43B4A9379D3
:1002600003F00C03082B394BF9D103221A714622F3
:100270005A719A799006FCD5344A9179334B4906E4
:10028000FBD5334A4FF08271116009215160202261
:100290001A709A7902F00C020C2AFAD12D4B2E4AD0
:1002A0001A602E4B2E4A1A6000225A60072243F829
:1002B000042C2C4AC3F80C2D62B604F06DFA154BD1
:1002C0001B68DA0705D5284804F0BAF9274B284AF5
:1002D0001A60284B1B785B0609D5244C244A2368F6
:1002E000934204D1204804F0ABF90023236009F0C5
:1002F000FFFA04F07BF906F09DF9FEE70E200540B9
:1003000030800440823F04000100002B88ED00E0B3
:1003100010D0034014D0034002D0074000E0074053
:10032000B410FF1F1CE200006007FF1FB810FF1F82
:10033000A81DFF1F0002FF1F0000000000E400E0F6
:1003400056E400E008ED00E00050064000400640A2
:100350004480044004800440C010050014E000E024
:10036000BFD4010000002020B54EB0581CE003406F
:10037000A5C3945A00F00740FFFFFFFFFFFFFFFFF8
:10038000FFFFFFFFFFFFFFFFFFFFFFFFFFFFFFFF7D
:10039000FFFFFFFFFFFFFFFFFFFFFFFFFFFFFFFF6D
:1003A000FFFFFFFFFFFFFFFFFFFFFFFFFFFFFFFF5D
:1003B000FFFFFFFFFFFFFFFFFFFFFFFFFFFFFFFF4D
:1003C000FFFFFFFFFFFFFFFFFFFFFFFFFFFFFFFF3D
:1003D000FFFFFFFFFFFFFFFFFFFFFFFFFFFFFFFF2D
:1003E000FFFFFFFFFFFFFFFFFFFFFFFFFFFFFFFF1D
:1003F000FFFFFFFFFFFFFFFFFFFFFFFFFFFFFFFF0D
:10040000FFFFFFFFFFFFFFFFFFFFFFFFDEF9FFFF23
:1004100010B5054C237833B9044B13B10448AFF33E
:1004200000800123237010BDB810FF1F00000000E2
:1004300014E2000008B5064B1BB106480649AFF3AD
:1004400000800648036813B1054B03B1984708BD07
:100450000000000014E20000BC10FF1FB410FF1FDA
:100460000000000070B5C2B00546C678B41D6846ED
:10047000A91C224603F0F0FF00AA22442B880DF8A5
:1004800004301B1253700DF1FF3442AD3544A5F218
:10049000011514F8010F04F0D3FBAC42F9D142B0BE
:1004A00070BD00BF30B59BB00146C3794A2B00F246
:1004B0005E81DFE813F04B005C014A015C015C01E6
:1004C0005C015C015C015C015C015C015C015C0144
:1004D0005C015C015C015C015C015C015C015C0134
:1004E0005C015C015C018100E5005C015C012A01AA
:1004F000330151005C015C01A1005C015C015C0105
:100500005C015C015C015C015C015C015C015C0103
:100510005C015C015C015C015C015C015C015C01F3
:100520005C015C015C015C015C015C015C015C01E3
:100530005C015C015C015C015C015C015C015C01D3
:100540005C015C015C015C015C01EB006B4651F8F5
:10055000080F496803C30AE105466C4655F8080FC1
:100560006968AA68EB680FC428696969AA6907C441
:10057000DFED807A9DED027A27EE277A7E4B83EDC0
:10058000007A9DED037A27EE277A7C4B83ED007A83
:100590009DED017A67EE277A794BC3ED007A049AD4
:1005A000784B1A60059A784B1A60069A774B1A6056
:1005B000009B774A1360DAE005466C4655F8080F51
:1005C0006968AA68EB680FC428696969AA6907C4E1
:1005D000AB8B23809DF81C206E4B1A70DDE9002345
:1005E0006D49C1E900239DF81D206C4B1A70BDF8C0
:1005F0001A206B4B1A80BAE005466C4655F8080F76
:100600006968AA68EB680FC428696969AA6907C4A0
:10061000019B644A1360029B634A1360039B634916
:100620000860BDF91410624A1160BDF91610614AE4
:100630001160BDF91810604A1160009A54490A60AF
:100640005E4A127842B95E4A82FB0312DB17C3EBA3
:10065000A2135C4A13608AE0594A82FB0312DB173B
:10066000C3EBA21307EE903AB8EEE77ADFED567AC5
:1006700067EE277AFDEEE77A524BC3ED007A76E01B
:1006800068460831652203F0E7FE70E005466C46D7
:1006900055F8080F6968AA68EB680FC428692060DC
:1006A000BDF91020494B1A60444B1B789BB9DFED14
:1006B000487A9DED007A27EE277A464B83ED007A43
:1006C0009DED017A67EE277A434BC3ED007A039ADA
:1006D000424B1A604BE0DFED427A9DED007A27EE47
:1006E000277A3C4B83ED007A9DED017A67EE277AFD
:1006F000394BC3ED007ADFED347A9DED037A67EE76
:10070000277A364BC3ED007A31E003466C4653F846
:10071000080F59689A68DB680FC428E004466B46E6
:1007200054F8080F6168A26807C3A2891A80019A69
:100730002C4B1A60029A2C4B1A60BDF90C202B4BE3
:100740001A60009B124A136011E002466B4652F891
:10075000080F5168926807C3DDE90001244BC3E923
:100760000001244A002308F0CBFD234B18601BB086
:1007700030BD00BFE12E65422816FF1FDC15FF1FAC
:100780005011FF1F2016FF1F1016FF1F5811FF1FCB
:100790001C11FF1F3C11FF1F4811FF1F2416FF1FD4
:1007A0003011FF1F2011FF1F5C11FF1F1416FF1FC8
:1007B0002C16FF1F3016FF1F3416FF1F4016FF1F99
:1007C000D34D62101811FF1F48F951403411FF1F1B
:1007D000666666406011FF1F1C16FF1F1411FF1F85
:1007E000295C0F40D815FF1FD415FF1F3811FF1FBC
:1007F000D810FF1F40420F006811FF1FF0B5C5B0B1
:10080000874C884D884FFCE004F0FEFAC6B2002306
:100810002370E3780A2B00F2C180DFE803F00606BC
:100820001339274B5D748EA8A800FE2E40F0EF8090
:100830000223E3700023EB70FE23AB704FF6FF73CF
:100840002B80ABE0EE70002323712A8886EA020336
:1008500083EA0313DBB2D90081EA032181EA222271
:1008600082EA23132B800423E37097E02E712A88F9
:1008700086EA020383EA0313DBB2D90081EA03218B
:1008800081EA222282EA23132B800323E37085E08E
:100890006E712A8886EA020383EA0313DBB2D90069
:1008A00081EA032181EA222282EA23132B80052395
:1008B000E37073E0AE712A8886EA020383EA0313C9
:1008C000DBB2D90081EA032181EA222282EA2313E2
:1008D0002B800623E37061E0EE712A8886EA02032A
:1008E00083EA0313DBB2D90081EA032181EA2222E1
:1008F00082EA23132B80EB7813B90823E3704DE0D1
:100900000723E3704AE023795A1CD2B222712B44A8
:100910001E72298886EA010383EA0313DBB2D8003A
:1009200080EA032080EA212181EA23132B80EB78DF
:10093000934233D10823E37030E02A88EB79FB5CE3
:10094000534083EA0313DBB2D90081EA032181EA31
:10095000222282EA23132B80C0B2DBB2984214BF5A
:100960000A230923E37023792B441E7216E00A2B15
:1009700004D0C0B22B88B0EB232F02D00223237007
:1009800001E0012323700123E37023792B445E727D
:10099000684629464FF4887203F05EFD2378012BE8
:1009A0000DD12B79637123890BB900226281013348
:1009B0002381EB788DF803300023A3701EE0EA78E2
:1009C0008DF8032021790022A270022B16D16B181A
:1009D0005A7A1B7A43EA0223ADF800300123A37050
:1009E00000232370FE2E02D00123E37006E00223D1
:1009F000E3700023EB704FF6FF732B806846FFF720
:100A000051FD04F0F1F900283FF7FEAE05E0EB7868
:100A10008DF803300023A370F0E745B0F0BD00BFB0
:100A2000E010FF1F6C11FF1F10D80000F0B5F7B0E9
:100A3000AF4C206803F0DEFC0746206803F0E2FCC0
:100A40000646206803F0E6FCAA4D0090AA48294615
:100A50003A46334609F002FD206803F0F3FC0746EE
:100A6000206803F0E7FC0646206803F0DBFC0090FA
:100A7000A24829463A46334609F0F0FC02A8A049AC
:100A8000A04A132301F05EFD9F4C9DF80C302371AA
:100A9000049BA3609DF814302373DDF81500DDF886
:100AA0001910DDF81D20C4F80D00C4F81110C4F8A9
:100AB00015209DF821206276099BE36102A801F0D0
:100AC000B3FB204601F0E4FB002800F004820EA8EE
:100AD0008A4905F0D3FC0AA80EA905F0EDFC8B4C61
:100AE0000AA8214605F080FD054612A8824905F0B6
:100AF000C5FC284612A905F06DFD214605F074FDE0
:100B0000054616A8824B19680A2205F007FD2846FB
:100B100016A905F05FFD214605F066FD05461AA8F9
:100B20007C4B93ED000A022105F00CFD28461AA922
:100B300005F050FD214605F057FD05461EA8764BF1
:100B400093ED000A022105F0FDFC28461EA905F0E0
:100B500041FD214605F048FD054622A86F4B93ED67
:100B6000000A022105F0EEFC284622A905F032FD1C
:100B7000214605F039FD054626A8694B93ED000A8C
:100B8000022105F0DFFC284626A905F023FD2146B9
:100B900005F02AFD05462AA8624B93ED000A0221C2
:100BA00005F0D0FC28462AA905F014FD214605F0E1
:100BB0001BFD05462EA85C4B93ED000A022105F0B3
:100BC000C1FC28462EA905F005FD214605F00CFDC7
:100BD000054632A8554B19680A2205F08BFC2846B9
:100BE00032A905F0F7FC214605F0FEFC054636A8C3
:100BF0004F4B19680A2205F07DFC284636A905F0FE
:100C0000E9FC214605F0F0FC05463AA8494B196875
:100C10000A2205F06FFC28463AA905F0DBFC2146C4
:100C200005F0E2FC05463EA8434B19680A2205F090
:100C300061FC28463EA905F0CDFC214605F0D4FC18
:100C4000054642A83D4B19680A2205F053FC284688
:100C500042A905F0BFFC214605F0C6FC054646A8A2
:100C6000374B19680A2205F045FC284646A905F0CD
:100C7000B1FC214605F0B8FC05464AA8314B19687D
:100C80000A2205F037FC28464AA905F0A3FC2146B4
:100C900005F0AAFC05464EA82B4B19680A2205F060
:100CA00029FC28464EA905F095FC214605F09CFC40
:100CB000054652A8254B93ED000A022105F042FC9F
:100CC000284652A905F086FC214605F08DFC054614
:100CD00056A81F4B93ED000A022105F033FC28466D
:100CE00056A905F077FC214605F07EFC32E000BFF6
:100CF0006811FF1F10D900002411FF1FE015FF1F0E
:100D00004416FF1FAC15FF1FF015FF1F20D9000070
:100D10001C11FF1F5011FF1F2816FF1FDC15FF1F9E
:100D20002016FF1F1016FF1F5811FF1F2011FF1F55
:100D30005C11FF1F1811FF1F1416FF1F2C16FF1F39
:100D40003016FF1F3416FF1F3411FF1F6011FF1FE5
:100D50001C16FF1F05465AA8604B93ED000A02219E
:100D600005F0F0FB28465AA905F034FC214605F0B1
:100D70003BFC05465EA85A4B93ED000A022105F0A4
:100D8000E1FB28465EA905F025FC214605F02CFC78
:100D9000054662A8534B93ED000A022105F0D2FBF1
:100DA000284662A905F016FC214605F01DFC054603
:100DB00066A84D4B19680A2205F09CFB284666A9D7
:100DC00005F008FC214605F00FFC05466AA8474BD4
:100DD00093ED000A022105F0B5FB28466AA905F04B
:100DE000F9FB214605F000FC05466EA8404B93ED4B
:100DF000000A022105F0A6FB28466EA905F0EAFBD1
:100E0000214605F0F1FB044672A83A4B93ED000A27
:100E1000022105F097FB204672A905F0DBFB014695
:100E2000354C204605F0A8FA204605F0CBFA72A80A
:100E300005F0D8FA6EA805F0D5FA6AA805F0D2FA3E
:100E400066A805F0CFFA62A805F0CCFA5EA805F016
:100E5000C9FA5AA805F0C6FA56A805F0C3FA52A86E
:100E600005F0C0FA4EA805F0BDFA4AA805F0BAFA96
:100E700046A805F0B7FA42A805F0B4FA3EA805F076
:100E8000B1FA3AA805F0AEFA36A805F0ABFA32A8E6
:100E900005F0A8FA2EA805F0A5FA2AA805F0A2FAEE
:100EA00026A805F09FFA22A805F09CFA1EA805F0D6
:100EB00099FA1AA805F096FA16A805F093FA12A85E
:100EC00005F090FA0AA805F08DFA0EA805F08AFA46
:100ED000204601F0D1F977B0F0BD00BF1411FF1F1B
:100EE000D815FF1FD415FF1F3811FF1FCC15FF1F8A
:100EF000D015FF1FEC15FF1FF015FF1F2DE9F04364
:100F00002DED048B83B0894690463A4C3A4D6846A5
:100F1000296800F005FD9DE8030084E8030087B21E
:100F2000276089B261602868002100F095FC334E8B
:100F300006EE907AB8EEE67A06EE900AF8EE667A59
:100F4000C7EE277AF1EE048A67EEA87A9FED2C8A25
:100F500067EE887AC6ED007A94ED019AB8EEC99AE8
:100F60002868012100F078FC07EE100AF8EE477AB5
:100F700089EE279A69EE288A28EE888A214B83ED2C
:100F8000008AD6ED008A38EEC88A1F4BD3ED007A6E
:100F900038EE678A1D4BD3ED007A88EE278A1C4B0A
:100FA00083ED008AB5EEC08AF1EE10FA1ADBD9F8AB
:100FB0000020531CC9F8003007EE902AB8EEE77AFB
:100FC000D8ED007A67EE277A114A92ED007A77EE33
:100FD000877A06EE903AB8EEE67AC7EE877AC8EDE1
:100FE000007A02E00B4BC8F8003003B0BDEC048B74
:100FF000BDE8F0833816FF1F1816FF1FCC15FF1F22
:1010000000007A44D015FF1F6C07FF1F7007FF1FF9
:101010005411FF1F000080BF2DE9F04FADF5077D93
:10102000744B1E78744B1D78744BD3ED002A744BAF
:1010300093ED003A734BD3ED003A734B93ED004AB6
:10104000724BD3ED004A724BD3F80090714BD3F83A
:101050000080714BD3F800C0704BD3F800E0704BA8
:101060001F68704B1C88704B1888704B1988704B28
:1010700093ED005A6F4BD3ED005A6F4B1A886F4BAC
:1010800093ED006A6E4BD3ED006A6E4B1B88DFF860
:10109000BCA19AED007ADFF8B8A1DAED007ADFF8AA
:1010A000B4A1DAF800B0DFF8B0A1DAF800A0CDF80A
:1010B00000A0CDED012A8DED023ACDED033A8DED84
:1010C000044ACDED054ACDF81890CDF81C80CDF836
:1010D00020C0CDF824E00A978DED0B5ACDED0C5AC7
:1010E0008DED0D6ACDED0E6A8DED0F7ACDED107A96
:1010F000CDF844B0ADF84840ADF84A00ADF84C101A
:10110000ADF84E20ADF85030522444A8694622462E
:1011100003F0A2F9E1238DF80F31FE238DF80A3197
:101120008DF80B418DF80D618DF80E51464B9A7973
:101130008DF80C2101329A710DF585710DF20F14A5
:101140004FF6FF7211F8013F534083EA0313DBB2FD
:10115000D80080EA032080EA222282EA2312A142F8
:10116000F0D1ADF8082144AA0DF5B174BDF808110D
:1011700012F8013B4B4083EA0313DBB2D80080EA4C
:10118000032080EA212181EA2313ADF80831A2422D
:10119000ECD183F01A0282EA0212D2B2D10081EAC3
:1011A000022181EA232383EA221291B2ADF80811C9
:1011B0008DF862219DF80B3109120DF21112D154F4
:1011C0009DF80B51AC1D68460DF58571224603F064
:1011D00043F900AA2244BDF808310DF804301B126F
:1011E0005370684605F1080104F0A8F80DF5077D75
:1011F000BDE8F08F7407FF1F6807FF1F2816FF1F49
:10120000DC15FF1F2016FF1F1016FF1F5811FF1FB0
:101210001C11FF1F2011FF1F5C11FF1F1811FF1F62
:101220001416FF1F2C16FF1F3016FF1F3416FF1F4A
:101230006011FF1F1C16FF1F3411FF1FD815FF1F61
:10124000D415FF1F3811FF1FE010FF1FCC15FF1F23
:10125000D015FF1FEC15FF1F5011FF1F30B583B0D5
:10126000234B1B680193019CFFF7C8FA2149224ACE
:10127000086892ED000AFFF741FE204B1B68E31A55
:10128000B3F5FA7F26D31E4B1B68002B22DD1D4DC4
:101290002878012103F0E4F9184B1C60FFF7BCFE2D
:1012A0002878002103F0DCF9322003F05FFA164BB6
:1012B0001B784BB12878012103F0D2F9FFF7B6FB78
:1012C0002878002103F0CCF900220A4B1A60002292
:1012D000094B1A6004F060F8002807DD04F06CF890
:1012E0000A4B1A68C1B212681846904703B030BD65
:1012F000E818FF1F4011FF1FEC15FF1F2C11FF1FE7
:101300006407FF1F7807FF1F6411FF1FF41AFF1FF8
:1013100010B51020002103F0C7F91120002103F0BF
:10132000C3F91F4C20680A214FF0FF3200F0B2FAD7
:1013300020680C214FF0FF3200F084FA206803216E
:101340004FF0FF3200F092FA206800214FF0FF3298
:1013500000F096FA206800214FF0FF3200F068FAA2
:1013600020680A21012200F095FA20680C21012250
:1013700000F068FA20680321012200F077FA206863
:101380000021012200F07CFA20680021012200F0F7
:101390004FFA20681021112200F086FA10BD00BF1C
:1013A0001816FF1F70B5C6B0684C23685B682046EE
:1013B00067491C229847204605F004F80D240126B1
:1013C00014250DE02046314603F04AF9284603F083
:1013D000CDF92046002103F043F9322003F0C6F98D
:1013E00003F002FD0028EDD0584C23685B682046CE
:1013F000584910229847204604F0E4FF03F0F4FC1B
:1014000000286EDD544B1D78544B1A78544B1878D5
:10141000544B19781424ADF800408DF802008DF873
:10142000031000218DF8041001218DF8051002AC85
:101430009DE803000490ADF814104223E371FE23ED
:10144000A3700623E3706571A271474B9A792271EC
:1014500001329A710DF10A010DF10F054FF6FF727D
:1014600011F8013F534083EA0313DBB2D80080EA4E
:10147000032080EA222282EA2312A942F0D1ADF8A9
:1014800008200DF10F020D34BDF8081012F8013FCD
:101490004B4083EA0313DBB2D80080EA032080EAE2
:1014A000212181EA2313ADF80830A242ECD183F068
:1014B000940282EA0212D2B2D10081EA022181EAC8
:1014C000232383EA221291B2ADF808108DF816207A
:1014D0009DF80B3009120DF11102D15402A8FEF74C
:1014E000C1FF1A4C23685B68204620491A2298479E
:1014F000204604F067FF1E4B1B78012B15D80D24E6
:1015000001261B4DFFF77AF92046314603F0A8F873
:10151000642003F02BF92046002103F0A1F8642099
:1015200003F024F92B78012BECD9084C23685B6875
:101530002046104911229847204604F043FF0D2011
:10154000012103F08DF846B070BD00BF081BFF1FDE
:1015500024D9000044D900007407FF1F6807FF1F4B
:101560006407FF1F7C07FF1FE010FF1F58D9000012
:101570003C11FF1F74D90000F0B583B0394C2368CB
:101580005B682046384924229847204604F01AFF19
:10159000364E40F2B2750D240FE0FFF72FF92046CA
:1015A000012103F05DF87D2003F0E0F820460021E2
:1015B00003F056F87D2003F0D9F8306802F042FFBE
:1015C000A842EAD0294C206802F03CFF0746206878
:1015D00002F030FF0646206802F024FF244D009000
:1015E000244829463A46334608F038FF206802F07E
:1015F00001FF0746206802F005FF0646206802F05A
:1016000009FF00901C4829463A46334608F026FF59
:1016100001241A4D1A4F1B4E28463946326823467C
:1016200008F01CFF1848294601F00AF80134002888
:10163000F2D1124D284609F00FF80246094C2368F2
:101640005B68204629469847204604F0BBFE236885
:101650005B6820460D4932229847204604F0B2FECE
:1016600003B0F0BD081BFF1F88D900006811FF1FE1
:1016700010D90000E015FF1F2411FF1FAC15FF1F3C
:10168000B0D900007407FF1F4416FF1FC0D9000027
:1016900070B588B00A20012103F006F8244E3046C8
:1016A000FE2100F0A1FE234B1870FFF765FF224CCE
:1016B000204608F0D1FF0246204D2B685B68284683
:1016C00021469847284604F07DFE6846314622466A
:1016D000132300F037FF1A4C9DF804302371029B4E
:1016E000A3609DF80C30237308AB53F8135D586862
:1016F0009968C4F80D50C4F81100C4F815101B7B8C
:101700006376079BE361684600F08EFD204600F09B
:10171000BFFD58B123685B6820460A49CF2298472D
:10172000204604F04FFE204600F0A6FD08B070BD34
:101730004416FF1F6411FF1FAC15FF1F081BFF1F7E
:10174000F015FF1FF4D9000000B583B0114B1878D5
:10175000012102F0A9FF0D20012102F081FF40F6D6
:10176000230003F05BFC41F2470003F08FF8FFF722
:1017700019FEFFF78DFF084B1B680193019A074B79
:101780001A60FFF7C5FD0D20002102F069FF03B0CC
:101790005DF804FB7807FF1FE818FF1F1011FF1FFB
:1017A00010B54FF4B27004F04DFF044600F014F889
:1017B000054B1C60054C204600F028FD20460449DE
:1017C000044A08F073F810BD1816FF1FF015FF1F2C
:1017D000292200006007FF1F38B5044600210F4A88
:1017E0000F4B00F093FB04F1AC05284601210D4A94
:1017F0000D4B00F08BFB022384F85831C4F85C4198
:10180000C4F86051094B1A6842F000621A600C3B40
:101810001A6842F000621A60204638BDF8DA00000B
:10182000F4DA0000C4DA0000F0DA00003C80044082
:1018300008B5012A0CBFD0F86001D0F85C0100F0B7
:1018400093F808BD08B5012A0CBFD0F86001D0F8A4
:101850005C0100F075F908BD08B501290CBFD0F88E
:101860006001D0F85C0100F0A7F808BD08B5012AB6
:101870000CBFD0F86001D0F85C0100F0C1F908BDE0
:1018800008B5012A0CBFD0F86001D0F85C0100F067
:10189000A3FA08BD08B5012A0CBFD0F86001D0F842
:1018A0005C0100F08BF808BDF8B504460F461646FB
:1018B000D0F85C0100F0D8FB054638B9D4F85C31AB
:1018C000DA8A92B242F00402DA8223E0D4F86001AC
:1018D000314600F0C9FB054638B9D4F86031DA8AE0
:1018E00092B242F00402DA8214E0D4F85C01394684
:1018F00000F0DEFBD4F86001314600F0D9FB064A67
:1019000014681F211160054B1868196072B61460C5
:10191000186062B62846F8BD00B0034000B00B4026
:10192000D1F85C21526C126812B20260D1F86021C9
:10193000526C126812B24260704700BF72B6012347
:101940004376826D520102F184420021D161826DA1
:10195000520102F184429361826D520102F184428C
:10196000D36162B6704700BF08B590F821208A4263
:101970001CD001290ED160220D4B1A70E1220133D7
:101980001A70012380F82130426D520102F1844225
:10199000136009E041B9074A117080F82110426DC7
:1019A000520102F184421160FFF7C8FF08BD00BF79
:1019B0000040074001400740C069704738B5044601
:1019C0000D46437E13F0FF0F01D000F04DF8012DBE
:1019D00006D8A36D5B0103F184420023936040E0CD
:1019E000A36D5B0103F1844301229A60042D0CD89E
:1019F000A36D5B0103F1844200231360A26D5201C9
:101A000002F18442536004232BE0082D0DD8A36D0E
:101A10005B0103F1844301221A60A36D5B0103F1B2
:101A2000844300225A6008231BE0102D0DD8A36DBB
:101A30005B0103F1844300221A60A36D5B0103F193
:101A4000844301225A6010230BE0A36D5B0103F174
:101A5000844201231360A26D520102F1844253605B
:101A6000202384F8203038BD70B50446836D5B01B7
:101A700003F18442D26942B104F018FEA36D5B0108
:101A800003F18442D269002AF6D103F184439B69B1
:101A900023B1E38A9BB243F00203E38272B6637E12
:101AA00013F0FF0F37D0236F1A68636F1E68A36FA0
:101AB0001D68E36F1868D4F880301968D4F8843052
:101AC0001B6832442A4402440A441A44C2F34E02B8
:101AD000636E42F400421A60D4F88C301A68D4F86D
:101AE00090301E68D4F894301D68D4F89830186887
:101AF000D4F89C301968D4F8A0301B6832442A44CA
:101B000002440A441A44C2F34E02A36E42F4004255
:101B10001A600023637662B6A37E13F0FF0F0DD028
:101B20002046022100F06CF82046022100F054F912
:101B300020460421FFF742FF0023A37670BD00BFBB
:101B400038B50446C37E0D468B4258D0437E13F011
:101B5000FF0F01D0FFF788FF072D07D90D2D29D8DA
:101B6000A5F10803DBB2012B0FD800E00825E36BD9
:101B70005B0103F184420023D360E26B520102F166
:101B800084429360FF23E36138E0A5F10A03DBB2EE
:101B9000012B10D8E36B5B0103F184430122DA606F
:101BA000E36B5B0103F1844300229A6040F2FF3350
:101BB000E36123E01025A5F10C03DBB2012B0FD864
:101BC000E36B5B0103F184430022DA60E36B5B01AA
:101BD00003F1844301229A6040F6FF73E3610DE054
:101BE000E36B5B0103F184420123D360E26B52019A
:101BF00002F1844293604FF6FF73E361E57638BDEE
:101C000038B5044690F824300D468B4200F0E3804E
:101C1000437E13F0FF0F01D0FFF726FF0F2D56D99B
:101C2000236C5B0103F184420123D360E26B520118
:101C300002F184425360E26B520102F1844213606C
:101C4000E36B5B0103F1844200235361E26B5201B9
:101C500002F184429361102D0CD1236C5B0103F1DE
:101C6000844300229A60E36B5B0103F18443012209
:101C7000DA6129E0112D0BD1236C5B0103F1844261
:101C800001239360E26B520102F18442D3611BE0B5
:101C9000122D0BD1236C5B0103F18442002393606E
:101CA000E26B520102F18442D3610DE0132D0BD19E
:101CB000236C5B0103F1844301229A60E36B5B01B7
:101CC00003F184430022DA6184F8245038BD236C88
:101CD0005B0103F184430022DA6065B9236C5B0188
:101CE00003F184439A60E36B5B0103F184430122B7
:101CF000DA61612354E0012D0DD1236C5B0103F106
:101D0000844300229A60E36B5B0103F18443012268
:101D1000DA61612344E0022D0CD1236C5B0103F1F5
:101D2000844200239360E26B520102F18442D3614A
:101D3000412335E0032D0DD1236C5B0103F1844376
:101D400001229A60E36B5B0103F184430022DA61B4
:101D5000412325E0042D0DD1236C5B0103F1844365
:101D600001229A60E36B5B0103F184430022DA6194
:101D7000212315E0052D0DD1236C5B0103F1844374
:101D800001229A60E36B5B0103F184430022DA6174
:101D9000212305E0E38A9BB243F00103E38238BDCF
:101DA000E26B520102F1844200215160E26B520168
:101DB00002F1844201211160E26B520102F184427E
:101DC00099099161E26B520102F18442C3F340131D
:101DD000536184F8245038BD38B5044690F8253056
:101DE0000D468B425FD0437E13F0FF0F01D0FFF70B
:101DF0003BFE8DB9E36B5B0103F1844301221A6161
:101E0000236C5B0103F1844200235360226C520176
:101E100002F18442136044E0012D11D1E36B5B01B8
:101E200003F1844201231361226C520102F18442C6
:101E300000215160226C520102F18442136030E0B3
:101E4000022D11D1E36B5B0103F184420123136185
:101E5000226C520102F184425360236C5B0103F156
:101E6000844300221A601CE0EB1EDBB2012B10D869
:101E7000E36B5B0103F1844201231361226C520185
:101E800002F184425360226C520102F184421360D9
:101E900007E0052D07D1E36B5B0103F184430022CA
:101EA0001A6184F8255038BD38B504460021C17642
:101EB000C16180F82010022280F8212080F82210D1
:101EC000012580F8235080F8241080F825104176F1
:101ED000C1824175026C520102F184421561FFF723
:101EE00043FD20460A21FFF72BFEA5762046202140
:101EF000FFF764FD20462946FFF782FE204629466B
:101F0000FFF76AFF2046FFF719FD38BD10B50446FC
:101F100001768262C3624FF400330363CB0403F1A2
:101F2000804202F56C324263334A1A448263334A78
:101F30001A44C263324A1A440264324A1A4442645E
:101F4000314A1A448264314A1A44C264304A1A44FB
:101F50000265304A1A4442652F4A1A4482652F4A64
:101F60001A44C2652E4A1A4402662E4A1A44426630
:101F70002D4A1A4482662D4A1A44C2662C4A1A44D3
:101F800002672C4A1A4442672B4A1A4482672B4A3A
:101F90001A44C2672A4A1A44C0F88020294A1A44BF
:101FA000C0F88420284A1A44C0F88820274A1A44D6
:101FB000C0F88C20264A1A44C0F89020254A1A44BA
:101FC000C0F89420244A1A44C0F89820234A1A449E
:101FD000C0F89C20224A1A44C0F8A02001EB8102DC
:101FE000204B03EBC203C0F8A430273180F8A810BF
:101FF000FFF75AFF204610BD04B0034008B003406D
:102000000CB0034010B0034014B0034018B00340BC
:102010001CB0034020B0034024B0034050B0034044
:1020200028B003402CB0034030B0034034B003402C
:1020300038B003403CB0034040B0034044B00340DC
:1020400048B003404CB0034054B0034058B0034084
:102050005CB0034060B0034064B0034068B003402C
:102060006CB00340106003402B2907D8836A585C8A
:1020700000F01F001F3818BF012070470020704774
:10208000836A5B5C13F0800F026C4FEA421202F12C
:10209000844214BF00210121116172B6426B90F895
:1020A000221003F01F0303EB8113136062B6704725
:1020B00070B504460E46FFF7D7FF054628B9E38AF8
:1020C0009BB243F00403E38213E0637E13F0FF0F3F
:1020D00002D02046FFF7C8FC637D01336375A36D12
:1020E0005B0103F184430122DA6020463146FFF7A9
:1020F000C7FF284670BD00BF10B582B002AB03F821
:10210000011D0268546819460122A04702B010BDA3
:1021100010B50446C3691BB901230371002010BD2B
:1021200000201871E06992B201F0AAFCE3691B7902
:1021300013B101232371002010BD00BF00B583B08F
:10214000C06960B10DF10701012201F029FA0128EF
:102150000CBF9DF807004FF6FF7000B201E04FF092
:10216000FF3003B05DF804FB30B583B00446C069AE
:1021700078B10DF10701012201F012FA01280AD10C
:102180009DF80750E069C168013901F0CDFA284691
:1021900003E0002001E04FF0FF3003B030BD00BF8E
:1021A00008B5C06908B101F0F7FA08BD2DE9F041A2
:1021B00004460E469046002303714FF47A72826003
:1021C0000373114B0360242007F0BAFBE061B8B140
:1021D0003546074606F1200E3E4628686968AA681B
:1021E000EB680FC6103537467545F5D12868306065
:1021F00004F10D0041460C2208F05EFA00236376DC
:102200002046BDE8F08100BF30DB000000220271F3
:102210004FF47A718160027302490160C2614273B6
:10222000704700BF30DB0000014B0360704700BF08
:1022300030DB0000C3690BB1D86870474FF0FF3046
:10224000704700BFC3690BB19869704700207047A1
:1022500038B50446C36963B1FFF7F4FF054620466D
:10226000FFF7E8FF281A47F6FF73984228BF184681
:1022700038BD002038BD00BF10B50446C06930B17C
:1022800001F0B6FAE06907F063FB0023E36110BDDB
:10229000C36923B19879003018BF0120704700202E
:1022A000704700BF10B58AB004460A4600238DF877
:1022B0000830094901918DF80A3001A8214601230F
:1022C00001F048FB041C18BF012414B101A801F05F
:1022D0008FFA20460AB010BD58DB0000F0B40C683D
:1022E000035D2F2B1CD101341AE0002563B11EE0E1
:1022F0000135013407F8013F0C2D05D016F8013FD8
:102300002F2B01D0002BF3D100235355035D2F2B2E
:1023100008BF01340C60005D003018BF01200BE0E5
:102320000619035D2F2B08BF0025EDD0DDE7013432
:10233000137017460125E1E7F0BC70472DE9F04F17
:1023400099B082460F469146984600238DF81C307E
:10235000244A06928DF81E308DF840300F928DF889
:10236000423001930C4606AE4FF0010B03E00FAC78
:10237000234634461E46504601A902AAFFF7AEFF87
:10238000054680F00102204602A9D2B24346C84762
:1023900030B9BC421CD0204601F02AFA00201EE0D1
:1023A0007DB13046214602AA5B4601F0D3FA0546CC
:1023B000BC4211D0204601F01BFA002DD8D10020DC
:1023C0000DE0BC4206D0204601F012FA012006E0E2
:1023D000002004E0012002E00028C8D1002019B04C
:1023E000BDE8F08F58DB000038B504460A46FE29E8
:1023F0000CD1FE23037000F0A7FA054600F090FA16
:10240000A070D5F1010038BF002002E0012100F0EA
:10241000E5FDA8B1251D28462146012201F00CFE4C
:1024200028B928462146002201F006FE50B104F1E9
:102430002C00294601F08AF8003018BF012038BD71
:10244000002038BD002038BD2DE9F04F99B08146FD
:102450009346019300238DF81C30394A06928DF87B
:102460001E308DF840300F928DF8423006A80431AE
:1024700001F06CF85C460FAE06AD4FF02F084FF040
:10248000000A2CE023782F2B01D1013427E03F1BD9
:10249000FFB20C2F28BF0C2702A821463A4608F0AD
:1024A0000BF918AB3B4403F858AC304601F0A0F9E7
:1024B0003046294602AA012301F04CFA40B9002314
:1024C00089F804301E4AC9F8002089F8063032E045
:1024D0003C44284601F08CF92B4635461E462046E2
:1024E000414607F0E1FF07460028CBD1CBEB0404BF
:1024F000019B1C602B7989F80430114BC9F800301E
:102500006B7989F80530AB7989F80630AB68C9F882
:102510000830EB68C9F80C302B69C9F810302B7DF6
:1025200089F81430AB69C9F81830EB69C9F81C3068
:102530002B6AC9F82030484619B0BDE8F08F00BFBB
:1025400058DB0000F0B5A7B0044615461F4602A8A8
:1025500001ABFFF779FF01996E18695C19BB9DF813
:102560000C308DF85430344B14939DF80D308DF8A9
:1025700055309DF80E308DF85630049B1693059B10
:102580001793069B18939DF81C308DF86430089BB8
:102590001A93099B1B930A9B1C93204614A9274A54
:1025A000FFF704FE45E000218DF83010224B0B931D
:1025B0008DF832109DF80E301BB92046FFF726FE2D
:1025C00037E00BA802A932463B4601F0C3F918B91F
:1025D0002046FFF71BFE2CE002A801F009F917F0D6
:1025E000060F03D00BA8119901F09EF89DF830302A
:1025F0008DF87830104B1D939DF831308DF879307F
:102600009DF832308DF87A300D9B1F930E9B2093EE
:102610000F9B21939DF840308DF88830119B2393B8
:10262000129B2493139B259320461DA93246FFF746
:10263000BDFD204627B0F0BD58DB000048DB0000A0
:1026400008B500F12C0308461946024A0023FFF79B
:1026500075FE08BDA5220000064B00229A700221DB
:10266000596083F8242083F830200349D96283F825
:10267000322070474416FF1F58DB000040F24343EE
:10268000074A1360043213604FF48861043211600A
:10269000043213600432136004321360704700BFC9
:1026A00000D004400023064A136004321360043251
:1026B00013600432136004321360043213607047F5
:1026C00000D00440114B196821F008021A60104A2A
:1026D0000A40104340F460221A60083B1B6813F064
:1026E000080F07D10B4B0C490A6812F0080F01D1F3
:1026F000013BF9D140F4602242F00802034B1A601A
:1027000004331A6842F480121A6070472C100B4090
:102710000700F0FFFFFF0F0024100B40224B1A6848
:1027200042F080021A60214A136813F0010FFBD1B6
:10273000136813F0020FF7D11D4B18604FF0807330
:1027400019481C490268013B0A4002D1002BF9D10B
:1027500002E00BB1012A08D0134A136843F4702336
:1027600043F001031360012070470F4B1B6813F007
:10277000800F06D00C4B1A6842F001121A60032039
:102780007047094B1B6813F4803F06D0064B1A684C
:1027900042F001121A6005207047034B1A6842F09C
:1027A00001021A600020704730100B4024100B40CB
:1027B0000C100B4001000E00F8B50022104B1A60FF
:1027C0001048FFF7ABFF63240F4D0D4F0D4E06E091
:1027D00000233B603046FFF7A1FF013C06D02B6889
:1027E00013F0040F08D00028F2D0F8BD30B90CB1B6
:1027F0000020F8BD0520F8BD0028F9D0F8BD00BFC5
:1028000008100B400000DB0C24100B4010B50446F0
:102810000022094B1A600948FFF780FF50B9084BA6
:102820001B68054B1C600748FFF778FF18B9044A7E
:10283000126810BD10BD10BD08100B4000001A3703
:1028400010100B400000022908B52D4B1A6842F405
:1028500000321A6008331A6842F400521A600433D6
:102860001A6842F002021A6004331A6842F0020247
:102870001A60244B1A6822F001021A60FFF712FF57
:10288000214A224B1A601A46136813F0807FFBD14D
:1028900000221F4B1A604FF48132BC3B1A60282281
:1028A00024331A604FF010121C331A604FF410607A
:1028B000FFF708FF174A136813F0030FFBD1FFF768
:1028C000DDFE4FF6FF72144B1A60144A04331A608F
:1028D000083B1A6842F000621A601A46136813F047
:1028E000006FFBD10C4B1A6842F080021A600C3B5F
:1028F0001B6803F48033002B0CBF0220002008BDAE
:102900003080044000D00040008000012C100B40BB
:10291000C0100B4024100B4030100B40BB007F1147
:10292000084B1B784BB9074B9B7843B1054B5B7841
:10293000002B14BF032002207047002070470120A5
:10294000704700BF9816FF1FF8B5FFF77DFF834B58
:10295000187000225A605A709A709A60002840F0ED
:10296000FC8010467E4B1A60FFF7D8FE50B97D4BB5
:102970001B684FF4D5727A4B1A607B48FFF7CEFE86
:1029800020B111E00120754B1870F8BD754B1A6825
:102990001B68B3F5D57F03D00120704B1870F8BDCC
:1029A00001226E4B5A7005E0052803D001206B4BC5
:1029B0001870F8BD0020FFF729FF18B10120674B00
:1029C0001870F8BD674B1B6813F4401F1FD0634B92
:1029D0005B78002B654D08BF4FF440150024614E15
:1029E000634F01342846FFF711FF002840F0A7800D
:1029F0003368002BC0F2A580BC42F2D104E0594BF1
:102A00001B6813F0804F02D10022544B5A700022F1
:102A1000534B1A605748FFF781FE48B9514B1B686A
:102A200000224F4B1A605448FFF778FE20B111E0A6
:102A300001204A4B1870F8BD4A4B1A681B681B0CE2
:102A40001B04464A5360464A13604C48FFF766FE33
:102A500020B17BE00120414B1870F8BD484B1A684B
:102A6000120E3E4BDA70474B1B6813F4400F16D121
:102A7000434B1968186800F00300043B1A681B6890
:102A8000920D42EA80220132C3F3C21302339A400C
:102A9000C1F30323093B9A40304B9A6009E02F4B66
:102AA00001229A70384A1268C2F31522013292024A
:102AB0009A602A4B5A682A4B1A603448FFF72EFE58
:102AC00050B9284B1B684FF40072254B1A603048F0
:102AD000FFF724FE20B10FE00120204B1870F8BD55
:102AE000204B1B681D4B5A681D4B1A602948FFF785
:102AF00015FE00282ED103E00120184B1870F8BDF8
:102B0000184B1B680222164B1A602348FFF706FE7B
:102B100000BB144B1B68214B1A6822F006021A6096
:102B20001A6842F002021A60FFF7BCFD4FF404700D
:102B3000FFF7C8FDFFF7A2FD084B1878F8BD01208C
:102B4000F8BD174B9C423FF65FAF58E70120034B9F
:102B50001870F8BD0120014B1870F8BD9816FF1FC2
:102B600008100B4010100B4000001A080000304005
:102B7000A08601000000090200001A0300000909F4
:102B800018100B401C100B4014100B4000001B07CA
:102B900000001A1000001A3700001A0628100B4017
:102BA0009F86010070B50446364B1B78002B65D11B
:102BB000344B5B7803B949024FF6FF72324B1A600F
:102BC000283B19604FF48132043B1A602F48FFF70D
:102BD000A5FD002854D12E4B1B682B4A136843F0E7
:102BE0002001116013F4E00F12D007E02B6843F0CE
:102BF00020062E60403213F4E00F0FD043F4E003C0
:102C000043F02003204A1360FFF7D6FD01202CE09B
:102C1000224604F5E0701F4C1F491B4D236813F436
:102C2000006FFBD00B6813600B6853600B689360F8
:102C30000B68D3600B6813610B6853610B68936179
:102C40000B68D3610B6813620B6853620B68936265
:102C50000B68D3620B6813630B6853630B68936351
:102C60000B68D3638242C1D10020074A136813F076
:102C7000020FFBD0094A044B1A6070BD032070BDDF
:102C800070BD00BF9816FF1F30100B4010003A11A6
:102C900010100B4024100B4020100B4022000001AC
:102CA00070B506462D4B1B78002B53D12B4B5B7810
:102CB00003B949024FF6FF72294B1A60283B19608D
:102CC0004FF48132043B1A602648FFF727FD0028A5
:102CD00042D1254B1B6806F50070214D234C2B6813
:102CE00013F0100FFBD02B6813F4E00F0AD01C4A2E
:102CF000136843F4E00343F010031360FFF75CFD37
:102D000001201EE006F14001334653F8042B2260F7
:102D10008B42FAD140362B6843F010032B602B68AE
:102D200013F4E00F0AD00E4A136843F4E00343F0B3
:102D300010031360FFF740FD012002E08642CED170
:102D40000020074A136813F0020FFBD0084A044B17
:102D50001A6070BD032070BD70BD00BF9816FF1FC4
:102D600030100B4000003A1810100B4020100B40A0
:102D700012000001084B1A6842F480621A604FF09A
:102D80000042DA62FF225A631A46D36A002BFCDA49
:102D9000014B986BC0B2704700C00240064B1A68E6
:102DA00042F480621A604FF00042DA6258631A46B9
:102DB000D36A002BFCDA704700C0024008B5052832
:102DC0001CD8DFE800F003070B0F13170E4A0F4B58
:102DD0001A6016E00C4A0D4B1A6012E00C4A0B4BBD
:102DE0001A600EE00B4A094B1A600AE00A4A074BC8
:102DF0001A6006E0094A054B1A6002E0084A034BD4
:102E00001A6001F0B3F908BD000001B8A816FF1F51
:102E10000110003803200038010002380430003867
:102E20000650013808B50078012101F019FC114B5A
:102E30001B78F3B100220F4B1A700F4B1B78C3B1F4
:102E400013F0010F03D00D4B1A680D4B1A600A4B9B
:102E50001B7813F0020F03D0084B5A68094B1A6015
:102E6000054B1B7813F0040F03D0044B9A68064BF4
:102E70001A6008BDAC16FF1FD818FF1FCC18FF1F23
:102E800000E100E004E100E008E100E010B5244BBF
:102E90001B78002B3ED10122214B1A70214B1A685E
:102EA000214B1B78002B28D072B61F4B1B7813F0D8
:102EB000010F07D01D4B1C681D49096821401D4C9E
:102EC00021601960184B1B7813F0020F07D01A4BC2
:102ED0001C68174949682140164C61601960124B03
:102EE0001B7813F0040F07D0144B1C681049896835
:102EF0002140104CA160196062B6114BDB6893420F
:102F000008D00F4B0F491960DA6042F080421A6115
:102F10000D4A1A600078002101F0A2FB10BD00BF2D
:102F2000AC16FF1FA816FF1FD818FF1F80E100E096
:102F3000C018FF1FCC18FF1F84E100E088E100E00B
:102F400000C0024001401F0000001F8070B582B029
:102F50000E460B4B1B680093009C094DA4B2FFF773
:102F600009FFFF2807D02B680193019B9BB21B1B15
:102F7000B342F4DB01E0012000E0002002B070BDAC
:102F8000E818FF1FF8B505460F4616464FF4967130
:102F9000FFF7DCFF47F04000FFF700FF182426FA98
:102FA00004F0C0B2FFF7FAFE083C14F1080FF6D1A6
:102FB00027B1082F0CBF8720FF2000E09520FFF7E6
:102FC000EDFE0024FFF7D6FE687010F0800F03D0EE
:102FD0000134B4F5807FF5D1F8BD00BF2DE9F04F85
:102FE00087B0044601910023837002707D4B1B68FB
:102FF0000393039FBFB21046012101F031FB2078FB
:10300000012101F051FB2078012101F029FB764BD1
:103010001A6842F480521A600620FFF7CFFE734B05
:103020001A68734B1B78002B28D072B6704B1B7834
:1030300013F0010F07D06F4B18686F490968014002
:103040006E48016019606A4B1B7813F0020F07D0BD
:103050006B4B1868684949680140684841601960CD
:10306000634B1B7813F0040F07D0664B1868624956
:103070008968014061488160196062B6624BDB6813
:10308000934200F0A080604B60491960DA6042F022
:1030900080421A615E4A1A6095E02846FFF77EFE7C
:1030A000013E16F0FF06F8D1514B1B78C3B113F067
:1030B000010F03D0514B1A68564B1A604C4B1B78CA
:1030C00013F0020F03D04D4B5A68534B1A60484B14
:1030D0001B7813F0040F03D0484B9A684F4B1A60CB
:1030E0002046FFF7D3FE4FF00008DFF8F89008E025
:1030F000D9F800300493049BDB1B9BB2B3F5FA6F45
:103100005DD8204641464246FFF73CFF05466070C9
:103110000128EDD1204608214FF4D572FFF732FF88
:1031200010F0040F04D00123A3704FF0000A0FE049
:103130004FF00408FFF71EFE607008F1FF3313F034
:10314000FF08F7D1AA283AD10223A3704FF0804A92
:103150004FF037094FF00008DFF888B008E0DBF8DF
:1031600000300593059BDB1B9BB2B3F5FA6F26D8A5
:10317000204649464246FFF705FF20462921524690
:10318000FFF700FF60700028E9D1A378022B0ED171
:1031900020463A210022FFF7F5FE80B9FFF7EAFD4D
:1031A00000F0C000C02811D10323A3700EE0204618
:1031B000FFF738FE0198FFF701FE2E460DE020468E
:1031C000FFF730FE09E00A26FF2566E7FFF7D2FD8C
:1031D000FFF7D0FDFFF7CEFDE9E7304607B0BDE8C9
:1031E000F08F00BFE818FF1F3C800440A816FF1FA7
:1031F000D818FF1F80E100E0C018FF1FCC18FF1F88
:1032000084E100E088E100E000C0024001401F00CE
:1032100000001F8000E100E004E100E008E100E0C0
:1032200070B582B004460E4B1B680093009D0C4E97
:10323000ADB207E033680193019B9BB25B1BB3F512
:10324000967F09DCFFF796FD6070FF28F2D0FE281C
:1032500014BF0020012000E0002002B070BD00BFBC
:10326000E818FF1FF8B504460D4616468378032B71
:1032700018BF4D02FFF70AFE204611212A46FFF72C
:1032800081FE002847D12046FFF7CAFF002842D020
:10329000234B244A1A60244A5A635A635A6306F538
:1032A000FD7E764513D2B01C06F5FE771946CB6A33
:1032B00013F0F00FFBD04A638B6BC3F3072500F8C4
:1032C000025C00F8013C0230B842F0D100E0B646A2
:1032D00006F5007676450DD97146114AD36A13F08A
:1032E000F00FFBD0936BC3F3072008704B700231D3
:1032F0008E42F3D80A4B0B4A1A600B4A5A631A469D
:10330000D36A13F0F00FFBD0054B9B6B2046FFF701
:1033100089FD0120F8BD2046FFF784FD0020F8BD9F
:1033200000C0024000041F80FFFF0090F8B5064671
:103330001E4B186840F4806018604FF00040D8625F
:103340005963114602F500770446DA6A002A08DB61
:10335000FBE7DA6A002A0DDBFBE7D36A002B15DBFB
:10336000FBE708460A781D6845F480651D60DC624D
:103370005A63EEE742781D6845F480651D60DC62A3
:103380005A630231B942E0D1084AE6E7FF20FFF76D
:1033900005FDFF20FFF702FDFFF7ECFC707000F069
:1033A0001F00052814BF00200120F8BD00C0024006
:1033B00070B5044616460D4629B38378032B18BF13
:1033C0004D02FFF763FD204618212A46FFF7DAFD7C
:1033D000C8B92046FE213246FFF7A8FF98B1204623
:1033E0004FF41671FFF7B2FD68B120460D2100229F
:1033F000FFF7C8FD38B9FFF7BDFC20B92046FFF73D
:1034000011FD012070BD2046FFF70CFD002070BDAE
:10341000014A024B1A60704703200038A816FF1FAC
:1034200010B50446006A012104F1080200F07AFD9B
:10343000034650B1E3693BB9A368E361637963F084
:103440007F036371012300E00123184610BD00BF14
:1034500070B50646FFF7E4FF0346E0B1336AB26891
:10346000023A197C02FA01F55A6915441C794CB1EB
:10347000013D281900F08CFC034660B1013C14F0BA
:10348000FF04F6D1336A1B7C4FF400729A40B36993
:103490001344B3610123184670BD00BF10B5044644
:1034A000006900F045FC20B1207D034B03EB401088
:1034B00010BD002010BD00BFBC16FF1F2DE9F0019C
:1034C00000232022CA5401330B2BFBD101380025E5
:1034D00007264FF008084FF00A0C1B4F21E02E2C56
:1034E00001D03A4606E00A2E24D04546664618E04A
:1034F000A34221D012F8013F002BF9D1AE421DD3D7
:10350000A4F12103DBB25D2B1AD86B1CDBB20D4496
:10351000A4F16102D2B2192A9CBF203CE4B22C7003
:103520001D4610F8014F002CD9D10878203818BF5B
:10353000012006E0002004E0002002E0002000E07E
:103540000020BDE8F00170475FDB000038B504469D
:103550000D4683790BBB91F82020102A07D1022356
:1035600083710023C3614B8C5B0183610CE0202AD3
:1035700014D103238371496AC161284604F11802FA
:1035800000F05CFC034648B1256201236371002210
:10359000A260E2602261227500E00023184638BD77
:1035A0002DE9F04F83B00446884601928379002BC1
:1035B00075D0437913F0010F74D08269C368D11AB2
:1035C0000198884201D98BB20193019B002B63D0F3
:1035D0001D46DFF80CA1DFF80C91DFF80CB1E368B1
:1035E000C3F30807A279022A04D1226A516A01EBC7
:1035F00053211BE0206A0679013E06EA5326F6B203
:103600005FB956B913B9E369A36006E0224652F8E0
:10361000081F00F0DDFB002847D0226AA368023BA8
:10362000117C03FA01F1526911443144C7F500736A
:103630009D42C6BF1E46B6B22E46637913F0400FB8
:1036400002D1B6F5007F3AD1D9F8003099423DD188
:1036500035E04046FFF7A6FAD0F1010038BF002060
:1036600002E04246FFF7FEFD10B3B0440DE05744C0
:10367000B819874209D03B46424613F8011B02F8AD
:10368000011B8342F9D1C71BB844E3683344E360AC
:10369000AD1BADB2002DA2D1019B98B20DE04FF64B
:1036A000FF700AE04FF6FF7007E04FF6FF7004E08E
:1036B0004FF6FF7001E04FF6FF7000B20CE00846D5
:1036C000002100F035FB0028D1D1F4E7DBF8000041
:1036D0000378FE2BC5D1BCE703B0BDE8F08F00BF77
:1036E000BC16FF1F8007FF1FB816FF1F30B583B041
:1036F00004468379012B0FD9C5680DF1070101221A
:10370000FFF74EFF012809D1E3681F33E36005F49A
:10371000F070044B184402E0002000E0002003B0E9
:1037200030BD00BFBC16FF1FF8B504460F468379B5
:103730007BB382698A422BD3022B02D1E160012341
:1037400027E021B900238360C360012321E0C3681F
:10375000026A157C09355A1EEA40013921FA05F53D
:10376000AA4200D813B9E369A3600AE0AD1A08E0E1
:10377000206AA168324600F02BFB013D034610B9D8
:1037800007E004F10806002DF2D1E760012300E014
:1037900000231846F8BD00BF38B50446807918B339
:1037A00094F90530002B1BDA20460121FFF776FE45
:1037B0000546C0B1A379012B9CBFA369C361A38B4C
:1037C0004383E38B8382094B1B682BB1183005F1CF
:1037D000160198472B8B6B82637903F07F0363712B
:1037E00000F066FA38BD002038BD00BFB016FF1FDC
:1037F00010B50446FFF7D0FF034610B10023A371B4
:103800000123184610BD00BFF0B583B004460D4635
:103810008379012B4ED1427902F0020202F0FF01BE
:10382000002A49D08269AA4248D3002A47D0C668F4
:103830002946FFF779FF0346002840D04DB9206A9A
:10384000E16900F0D3FB0346002838D00023E36190
:103850001DE0206AA16801AA00F0BAFAA8B1206AA6
:10386000019990F820704FF6F872164B102F08BF90
:10387000134699420BD200F0B9FB30B1206AA1681F
:103880006FF0704200F006FB08B9002317E0A56155
:10389000637963F07F0363712046FFF77DFF034682
:1038A00068B12046B54234BF29463146FFF73CFF98
:1038B000034604E0002302E00B4600E00023184624
:1038C00003B0F0BDF8FFFF0F38B5044615461F4B97
:1038D00003EB4113DA7A12F0110F02D015F0420F08
:1038E0002CD121751A4A12682261998A0904E16172
:1038F0005A8B1143E161D87A10F0180004D1DB69CA
:10390000A3610123A3710AE0102819D1206A04F1F0
:10391000180200F093FA0346A8B10423A37105F03E
:103920000F0363710023A360E36015F0400F09D01B
:1039300020461946FFF768FF034604E0002302E033
:10394000002300E00123184638BD00BFBC16FF1F4E
:103950008007FF1F2DE9F04F85B005460C469A46BB
:103960008679002E7FD1104601A9FFF7A7FD002818
:103970007BD0236A2B620027A760E760DFF8FC900A
:103980004FF0010825E0C1F3431B2046FFF7AEFED0
:10399000014600286AD003780BB1E52B09D12FB975
:1039A00085F814B0D9F800302B6147460B7883B9FD
:1039B00013E001A80B2206F06FFA50B90AF03003A9
:1039C000302B53D0284659465246FFF77DFF064616
:1039D0004CE0E168A3699942D5D30AF01203122B97
:1039E00044D137B128460121FFF758FD044660B99C
:1039F0003CE0A379022B39D02046FFF729FD06468B
:103A0000002833D000232B751A4C20460021202299
:103A100006F0D6FA01AB03CB206061601A889B7870
:103A20002281A372144B1B682BB104F1100004F126
:103A30000E01984707E02123237428236374002391
:103A4000A3730823E373238A63822383E389E382D6
:103A500000F02EF9064648B12846297D5246FFF768
:103A600033FF064602E0002600E00646304605B079
:103A7000BDE8F08FBC16FF1FB016FF1F8007FF1FA9
:103A80002DE9F04F85B00446884601928379012BD9
:103A900040F0CB80437913F0020F00F0C68013F0A2
:103AA000040F08D08169C3688B4204D0FFF73CFE45
:103AB000002800F0BA80019A002A00F0998016468A
:103AC000DFF8CCA1DFF8CCB1206AE76890F8049069
:103AD00009F1FF3909EA5729C7F3080719F0FF0967
:103AE0002AD1002F40F0A580A16851B9E36933B90C
:103AF0002046FFF795FC002840F0AC8095E0A360DD
:103B0000A8E003AA00F064F9002800F0B580039B48
:103B1000226A92F820004FF6F871594A102808BF1F
:103B20000A46934206D32046FFF77AFC002840F06D
:103B300091807AE0A3608DE0C7F50075ADB2AE422A
:103B400038BF3546A368023B027C93404269134468
:103B50009944B5F5007F1ED1DBF800304B4504BF1A
:103B60004FF0FF33CBF80030464B18680378FE2B3C
:103B700008D140464946FFF793F8D0F1010038BF1D
:103B8000002003E049464246FFF712FC00284CD0D3
:103B900008F5007824E07FB9E268A3699A420BD364
:103BA00000F086F8002840D0CBF80090364A137811
:103BB00043F00103137005E04846012100F0B8F816
:103BC000002832D057447819874209D03B464246F4
:103BD00012F8011B03F8011B8342F9D1C71BB8443B
:103BE000761BB6B2E3681D44E560002E7FF46CAF2F
:103BF000E368A269934205D9A361637963F07F0307
:103C0000637108E0214B1B682BB1019B1BB16379E9
:103C100063F07F036371637913F0080F03D02046CC
:103C2000FFF7BAFD08B1019826E0012323710020B7
:103C300022E0C7F50075ADB2AE4238BF3546A36885
:103C4000023B027C03FA02F943699944B5F5007F0F
:103C5000B2D181E7B6F5007F34BF35464FF4007529
:103C6000236AA268023A197C02FA01F95B69994455
:103C7000B5F5007F90D16FE705B0BDE8F08F00BFCC
:103C8000F8FFFF0FB816FF1FBC18FF1FB016FF1F6D
:103C9000BC16FF1F8007FF1F00B583B002AB03F8FF
:103CA000011D19460122FFF7EBFE03B05DF804FB8E
:103CB00008B51A4B1B78002B2ED0194B1868194BDE
:103CC00019680378FE2B07D11748FEF7E9FFD0F1FA
:103CD000010038BF002002E0134AFFF769FBE0B1A2
:103CE000124B196899B10E4B18680378FE2B07D157
:103CF0000D48FEF7D5FFD0F1010038BF002002E0EB
:103D0000094AFFF755FB40B10022084B1A60002218
:103D1000024B1A70012008BD012008BDBC18FF1F0E
:103D2000B816FF1F8007FF1FBC16FF1FB416FF1F2A
:103D300038B504460D46124B1B68834219D0FFF775
:103D4000B7FF0346D0B10F4B18680378FE2B08D19C
:103D50000D482146FEF726FFD0F1010338BF0023AE
:103D600004E02146084AFFF77DFA034633B1044BCD
:103D70001C60064B1A7815431D700123184638BD88
:103D80008007FF1FB816FF1FBC16FF1FBC18FF1FC0
:103D900010B50446FFF78CFF034680B109494B1E5E
:103DA00001F2FF11002203F8012F8B42FBD1064BD9
:103DB0001C60064B1A7842F001021A700123184663
:103DC00010BD00BFBC16FF1F8007FF1FBC18FF1FE0
:103DD00070B504460D461646C36801338B4225D3A1
:103DE000C36990F82020102A0CBF080AC80918449B
:103DF000104B1B68984204D00021FFF799FF03463F
:103E0000A8B194F82030102B06D1EDB20A4B33F84C
:103E10001530336001230AE005F07F05064B53F8A7
:103E2000253023F070433360012300E0002318465F
:103E300070BD00BF8007FF1FBC16FF1F2DE9F043B8
:103E400083B0044602AE46F8041D914600254FF4A7
:103E500000780F4F204601993246FFF7B9FF03461D
:103E600088B1237C08FA03F31D4494F820104FF620
:103E7000F873102914BF39461946019B8B42E9D3C8
:103E8000C9F800500123184603B0BDE8F08300BF15
:103E9000F8FFFF0FF8B504460D461746012931D942
:103EA000C368013399422FD8C36990F82020102AA3
:103EB0000CBF0E0ACE091E44164B1B689E4205D04D
:103EC00030460021FFF734FF034600B394F820305A
:103ED000102B04D1EDB2104B23F8157004E005F05F
:103EE0007F050D4B43F825700C4B1A7842F0010208
:103EF0001A70237E012B09D9A3681E44084B1E604B
:103F0000012304E0002302E0002300E0012318461F
:103F1000F8BD00BF8007FF1FBC16FF1FBC18FF1FA6
:103F2000B416FF1F2DE9F04F85B006468A46009271
:103F300017681FB101370023019305E007680129C5
:103F400014BF002301230193F36803F10108DBB1DF
:103F50003C4600254FF00209CB46A0453CBF4C46ED
:103F60005F463046214603AAFFF732FF60B1039B4C
:103F70000BB1671C03E0631CDB1B534506D0013506
:103F80000134F368AB42E8D800232AE030462146EA
:103F90006FF07042FFF77EFF034648B921E0651ECF
:103FA000304629462246FFF775FF034618B918E048
:103FB000BC42F4D803E0BD4201D92C46EFE7009B98
:103FC000196829B130463A46FFF764FF034640B10D
:103FD000009B1F60019B1BB101373760012300E08C
:103FE0000123184605B0BDE8F08F00BFF0B583B0DF
:103FF00005460C460223036000260E4F2846214644
:1040000001AAFFF7E5FE80B1284621463246FFF7B8
:1040100041FF50B1019C95F820104FF6F87310291C
:1040200018BF3B469C42E9D301E0002000E001209C
:1040300003B0F0BDF8FFFF0FF8B50546494B196016
:104040001446DAB1042A7FD800200146FFF770FE3B
:104050000346002800F08380434B03EB041494F8DC
:10406000AE3104F5D47413F07F036FD1D4F812107D
:10407000632974D9D4F80E400CB970E000242046AE
:104080000021FFF755FE0346002868D0364BB3F8F1
:104090000B30B3F5007F5BD1334B1B7C002B5ED024
:1040A000314AD289002A55D02F4A517B002953D05A
:1040B0002B76297100232B74012003E05A1C2A74EB
:1040C000072B4BD82B7C1E4600FA03F29142F5D108
:1040D000254BD98A01B9596AA960234BDA89224450
:1040E000EA61B3F8110087B268841B7C03FB0123EB
:1040F0006B627A0102F2FF1203EB62236B611A4AD0
:10410000B2F813200AB9184A126AE31A134423FAC0
:1041100006F6EE6040F6F4739E4204D80C2385F850
:10412000203001231BE04FF6F4739E4204D8102385
:1041300085F82030012312E00B4BDB6A6B622023F1
:1041400085F8203001230AE0002308E0002306E080
:10415000002304E0002302E00B4600E000231846A1
:10416000F8BD00BFB816FF1FBC16FF1F284B1A680A
:1041700042F480521A60274B274A1A60274ADA60B5
:1041800002F180421A61264A1A60264B1B7813F00E
:10419000030302D0012B05D009E04FF41072224B2B
:1041A0001A6008E04FF40072204B1A6003E04FF4ED
:1041B00000721F4B1A601B4B1B7813F00C0302D0CC
:1041C000042B05D009E04FF400721A4B1A6008E086
:1041D0004FF40072184B1A6003E04FF40072174B53
:1041E0001A60104B1B7813F0300302D0102B05D04F
:1041F00009E04FF41072124B1A6070474FF40072CE
:10420000104B1A6070474FF400720F4B1A607047E2
:104210003C80044000C0024001401F0001100038F3
:1042200000001F80041BFF1F18B0044008C004409A
:10423000409004401CB004400CC004404490044032
:1042400014B0044004C004403C9004402DE9F00F39
:104250005B4BA3FB00425209C2EB0214A0EB8400AB
:104260000870A3FB02A35B09C3EB0310A2EB80025F
:104270004A70544CA4FB03084FEA181808EB480294
:10428000A3EBC2038B70474608F104004E4AA0FB23
:104290000223C21A03EB52039B08C3EBC303C01AE9
:1042A0000130C8700020024640F26D1C474C4FF0B0
:1042B00064094FF4B77BC5B205F2B273ABB113F02A
:1042C000030F14D184FB03A6761109FB163686B9B9
:1042D00084FB03A6F6114FF4C87A06FB1A36002EAB
:1042E0000CBF4FF4B776664604E0664602E06646C9
:1042F00000E05E46324401309742DCD28D71CBB192
:1043000013F0030F19D1314880FB0340401164249E
:1043100004FB1030A0B92D4880FB03A0C0114FF45E
:10432000C87400FB1430002840F26D1408BF4FF42D
:10433000B77407E040F26D1404E040F26D1401E040
:104340004FF4B774121BC2EB0804204F87FB03071E
:104350004FEA671C642202FB1C3CFF114FF4C87239
:1043600002FB173700221A4E4FF01C0803F0030A15
:104370004FF01D09D0B201280BD163B1BAF1000F83
:104380000BD1BCF1000F0AD1002F0CBF1D251C253D
:1043900006E0955D04E0454602E0454600E04D46F6
:1043A000A54205D8641B0130C0B201320C2AE1D10C
:1043B0000130487101340C71BDE8F00F704700BF47
:1043C00089888888ABAAAAAA254992241F85EB511F
:1043D00070DB000010B50446044B1B68984204D003
:1043E0000349FFF733FF014B1C6010BDDC18FF1FB2
:1043F000E018FF1F08B5FFF7EDFF014B987808BDE7
:10440000E018FF1F08B5FFF7E5FF014B587808BD1E
:10441000E018FF1F08B5FFF7DDFF014B187808BD56
:10442000E018FF1F08B5FFF7D5FF014B187908BD4D
:10443000E018FF1F08B5FFF7CDFF014B587908BD05
:10444000E018FF1F08B5FFF7C5FF024B987900F28F
:10445000B27008BDE018FF1F844641EA000313F064
:1044600003036DD1403A41D351F8043B40F8043B7B
:1044700051F8043B40F8043B51F8043B40F8043B3E
:1044800051F8043B40F8043B51F8043B40F8043B2E
:1044900051F8043B40F8043B51F8043B40F8043B1E
:1044A00051F8043B40F8043B51F8043B40F8043B0E
:1044B00051F8043B40F8043B51F8043B40F8043BFE
:1044C00051F8043B40F8043B51F8043B40F8043BEE
:1044D00051F8043B40F8043B51F8043B40F8043BDE
:1044E00051F8043B40F8043B403ABDD2303211D37E
:1044F00051F8043B40F8043B51F8043B40F8043BBE
:1045000051F8043B40F8043B51F8043B40F8043BAD
:10451000103AEDD20C3205D351F8043B40F8043B7D
:10452000043AF9D2043208D0D2071CBF11F8013B7B
:1045300000F8013B01D30B8803806046704700BF41
:10454000082A13D38B078DD010F003038AD0C3F150
:104550000403D21ADB071CBF11F8013B00F8013B32
:1045600080D331F8023B20F8023B7BE7043AD9D3F1
:10457000013A11F8013B00F8013BF9D20B780370C6
:104580004B7843708B78837060467047024B1A6893
:1045900001321A60704700BFE818FF1F08B50D4CC4
:1045A000236813F4802F01D001F0C4F8236813F4BA
:1045B000806F01D000F0A2FC236813F4006F01D0DB
:1045C00002F0BEFD236813F4805FE9D000F05AFFCB
:1045D000E6E700BF3480044008B5FFF7DFFF00BF07
:1045E0001022014B1A80704700200540704700BF21
:1045F000024A136818441060184670478407FF1F6A
:10460000EFF31383ABB9EFF31083ABB9EFF305838B
:1046100023B10F2B05D9094A985C03E04FF4807051
:1046200000E00020EFF311833BB1834238BF18460E
:1046300070474FF0FF30704700207047F0E300E014
:10464000044B00221A6004490A60044A10601022D8
:104650001A60704714D0034004D0034000D00340D8
:104660003F281ED80F4B53F8303093F8802212F0B9
:10467000FF0F08D019B1012283F880207047012272
:1046800083F800217047074B03EBC000436821B15A
:104690001A6842F003021A6070471A6822F0020298
:1046A0001A6070477CDB00003F283AD81D4B03EBB3
:1046B000C0035B68012919D0042925D0194A52F892
:1046C0003020002082F8800219B94FF480721A60FD
:1046D0007047022903D140F203121A607047032980
:1046E0000CBF4FF4817200221A6070470D4A52F8D5
:1046F0003020012182F880124FF4A2721A601A68E9
:1047000022F020021A607047064A52F83020012138
:1047100082F880124FF4A2721A601A6842F02002E6
:104720001A6070477CDB000072B60C4B1B680C4AA9
:1047300012680C49096862B611F0806F02D0322B02
:1047400088BF0132C3F5EA33BF330749A1FB030336
:104750009B094FF47A7000FB0230704718E000E0CC
:10476000E818FF1F04ED00E08988888838B5054601
:10477000FFF7DAFF044625B938BD013D0AD004F53C
:104780007A74FFF7D1FF001BB0F57A7FF5D201F004
:104790008DFFF6E738BD00BF70B5344B4FF00062B7
:1047A0001A604FF080521A604FF000521A604FF0BA
:1047B00080421A604FF000421A6000202C4B1860B3
:1047C0004EF6FF710433196028232A4A1360083219
:1047D0001360083213600832136008321360083225
:1047E00013600832136008321360234D2B60234C92
:1047F000236002F5002202F6D872136008321360BB
:1048000008321360083213600832136008321360F4
:1048100009221B4E326006F580560436306004369D
:1048200031600436336008363360143E326006F57A
:10483000FE260436306004363160043633600836B4
:104840003360143E326006F58056043630600D4801
:1048500001602B6023600C4B1A6001F057FF4FF48E
:10486000C870FFF783FF01F0E5FA70BD04E100E0D6
:10487000048003400C8003400C900B4014900B40CC
:104880000080034008900B4000900B402B4B1A68AF
:1048900042F480621A600023294A1370294A137077
:1048A000294A1370294A1370294A1370294B1B781F
:1048B000152B07D01B2B0AD06BB940F21332264BB5
:1048C0001A6008E040F21332244B1A6003E040F211
:1048D0001332234B1A60234B1B78052B08D01A2B5D
:1048E0000BD0012B0DD14FF451721F4B1A6008E011
:1048F0004FF451721D4B1A6003E04FF451721C4B80
:104900001A60C0F344321B4B1A70C0F347125A703E
:1049100000F01F00987204229A700221D9745A750F
:1049200088221A743C22DA704022134B1A704FF01E
:104930000042A3F21F331A60704700BF3480044066
:104940007819FF1FF118FF1F8019FF1F7919FF1F2A
:10495000F018FF1F3419FF1F40A0044018C0044086
:104960003C9004408807FF1F44A004401CC0044042
:104970003890044000A006401FE400E01B4B9B78E9
:1049800003F0EC0300F00302134310F0040F18BF10
:1049900043F01003154A937000F00F03042B04D169
:1049A0001346927942F040029A71104B5A7902F004
:1049B000EF0210F0100F18BF42F010020B4B5A71AB
:1049C0009B7903F0EF0310F0200F18BF43F01003A2
:1049D000064A937110F4807F07D013465278D2B202
:1049E000197841F0200119705A70704700A00640F4
:1049F00010B5144B1B6813F4806F21D0124B1B7839
:104A000013F0FF0F06D0104C01F050FE237813F086
:104A1000FF0FF9D14FF000420C4B1A6000230C4AF3
:104A2000D37040F203120B490A6004310A600A4A4B
:104A300013700A4A13700A4B1B680BB101221A70DB
:104A400010BD00BF34800440F018FF1F80E100E07B
:104A500000A0064040A004407819FF1FF118FF1F76
:104A6000EC18FF1F10B50446094A137813F0FF0F26
:104A7000FBD120460121FFF717FE20460021FFF75A
:104A8000EFFD044B53F83420034B1A6010BD00BFF8
:104A9000F018FF1F7CDB00007C19FF1F10B40C46D0
:104AA00009B140F080001D4B1B78984233D01C4A5E
:104AB000126812F4806F2CD003F07F03052B07D00F
:104AC0001A2B09D0012B0AD10022164B1A6006E0DE
:104AD0000022154B1A6002E00022144B1A60002CD1
:104AE0000CBF4422602200F07F03052B08D01A2B54
:104AF0000BD0012B0DD142F440720A4B1A6008E032
:104B000042F44072084B1A6003E042F44072074BD3
:104B10001A60024B18705DF8044B70478807FF1F3E
:104B20003480044044A004401CC004403890044039
:104B3000174B1B78984229D0164A126812F4806FDE
:104B400022D0152B06D01B2B08D053B90022124BB4
:104B50001A6006E00022114B1A6002E00022104B9E
:104B60001A60152807D01B280AD068B940F2133202
:104B7000094B1A6008E040F21332084B1A6003E058
:104B800040F21332064B1A60014B1870704700BF99
:104B90003419FF1F3480044040A0044018C0044072
:104BA0003C90044010B50D4B1B6813F4806F12D07D
:104BB0003F280CD80A4C0B4B53F8303023600121AE
:104BC000FFF772FD236800221A70012010BD00203B
:104BD000034B186010BD002010BD00BF348004409E
:104BE000EC18FF1F7CDB0000114B1B6813F4806F77
:104BF0001BD0122804D140F202320E4B1A600DE095
:104C0000142804D140F202320B4B1A6006E00B4B21
:104C10005A7B02F0FE025A7300207047074B5A7B02
:104C200042F001025A73012070470020704700BF14
:104C3000348004400CA0044014C0044000A006408E
:104C40002DE9F04107461F4B1B6813F4806F37D0E6
:104C50001D4B1B680BB101221A701C4B1C780134D0
:104C6000402C28BF00241A4D1A4EDFF86C8017E044
:104C7000FFF7C6FC40280FDC337913F0800F0FD00C
:104C80002B780133402B28BF002318F80320D2B221
:104C9000F271DBB22B7003E0FF2801DD01F006FDAD
:104CA0002B78DBB29C42E3D0FFB20B4B1F550122A5
:104CB0000A4B1A70E4B2054B1C70BC22054BDA702B
:104CC000BDE8F081348004407C19FF1F8019FF1F6C
:104CD0007919FF1F00A00640F418FF1FF018FF1FEE
:104CE0002DE9F84F0746284B1B6813F4806F49D015
:104CF000264B1B680BB101221A7007EB010B5F45B5
:104D00003DD2DFF89890224EDFF88C80DFF890A03B
:104D100099F800400134402C28BF00243578EDB2CA
:104D2000A54220D1BC2388F80330FFF769FC402856
:104D300011DC98F8043013F0800F10D03378013371
:104D4000402B28BF00231AF80320D2B288F807208E
:104D5000DBB2337003E0FF2801DD01F0A7FC3378FC
:104D6000DBB29D42E1D017F8013B0AF80430012282
:104D7000084B1A70E4B289F800405F45C8D1BC22E4
:104D8000054BDA70BDE8F88F348004407C19FF1FB2
:104D90007919FF1FF018FF1F00A006408019FF1FA0
:104DA000F418FF1F10B5064B1B7813F0FF0F06D049
:104DB000034C01F07BFC237813F0FF0FF9D110BDF9
:104DC000F018FF1F064B1B78DBB2064A1278D2B2EE
:104DD00093422CBF3F3202F1FF32D01A704700BF1E
:104DE0008019FF1F7919FF1F054B1878C0B2054BBA
:104DF0001B78DBB2984238BF4030C01A704700BF02
:104E00007819FF1FF118FF1F10B4184B1A78D2B28F
:104E1000174B1B78DBB29A4218D001333F2B18D8BE
:104E20001449C85CC0B2DCB211490C70124909685F
:104E3000C9B19A4203D300E00023D31A01E0403203
:104E4000D31A1A2B0FDC00230B700CE04FF0FF304D
:104E500009E0084B1878C0B20021054B1970064BC9
:104E600019680029E8D15DF8044B70477819FF1FD5
:104E7000F118FF1F3819FF1FEC18FF1F094B1A7894
:104E8000D2B2094B1B78DBB29A4207D00133402BD8
:104E900028BF0023054AD05CC0B270474FF0FF30F6
:104EA000704700BF7819FF1FF118FF1F3819FF1F47
:104EB0000D4B1B6813F4806F14D00C4BDA7802F0A2
:104EC000CB02DA7040225A74DA7842F03402DA7097
:104ED000074B1A78D2B2074B1A70074B1B680BB1FD
:104EE00000221A70704700BF3480044000A00640C2
:104EF000F118FF1F7819FF1FEC18FF1F70B43D4B0E
:104F00001B7913F0300F33D072B63A4B9B7D03F010
:104F1000FF022BB9374BDA7940225A7462B627E088
:104F200062B6354B1978C9B2344B1C78E4B2314DB6
:104F3000334EEB79D8B24B1C402B28BF0023A34241
:104F40001CBFF0541946531E13F0FF02F1D1CAB230
:104F5000294B1A702B4B1B6853B1A1422EBFC4EBD7
:104F60000101C4F1400409192729C4BF01221A70A4
:104F7000204BDA78D2B212F0800F27D01B7913F0D1
:104F8000800F23D0204B1C78E4B2204B1B78DBB27F
:104F90009C4210D017491E4D01E0A3420BD00133B3
:104FA000402B28BF00230879E85CC0B2C871087D97
:104FB000C0B20728F1D9DBB214490B700D4B1B7935
:104FC00013F0800F02D07C210A4BD97012F0400FF1
:104FD0000ED0084B1B7913F0400F09D000220D4B67
:104FE0001A700D4B1B6803B11A703C22014BDA702A
:104FF00070BC704700A006407819FF1FF118FF1F12
:105000003819FF1FEC18FF1F8019FF1F7919FF1FA8
:10501000F418FF1FF018FF1F7C19FF1F164B1A68AA
:1050200042F480521A600023144A1370144A137019
:10503000144A1370144A1370144A137040F2133157
:10504000134A11604FF4517104321160C0F34431BE
:10505000104A1170C0F34711517000F01F00907298
:10506000937013742C23D37040220B4B1A700822B8
:10507000A3F21F331A60704734800440F419FF1FF5
:105080008919FF1FFC19FF1FF519FF1F8819FF1F42
:1050900008C0044000C0064023E400E01B4B9B789E
:1050A00003F0EC0300F00302134310F0040F18BFE9
:1050B00043F01003154A937000F00F03042B04D142
:1050C0001346927942F040029A71104B5A7902F0DD
:1050D000EF0210F0100F18BF42F010020B4B5A7184
:1050E0009B7903F0EF0310F0200F18BF43F010037B
:1050F000064A937110F4807F07D013465278D2B2DB
:10510000197841F0200119705A70704700C00640AC
:1051100010B5134B1B6813F4805F20D0114B1B7824
:1051200013F0FF0F06D00F4C01F0C0FA237813F0F4
:10513000FF0FF9D108220C4B1A6000230B4AD370E1
:1051400040F203120A490A6004310A60094A1370E6
:10515000094A1370094B1B680BB101221A7010BD6C
:10516000348004408819FF1F84E100E000C006403D
:1051700008C00440F419FF1F8919FF1F8419FF1F7D
:1051800010B50446094A137813F0FF0FFBD12046EF
:105190000121FFF789FA20460021FFF761FA044B4D
:1051A00053F83420034B1A6010BD00BF8819FF1F4D
:1051B0007CDB0000F819FF1F10B40C4609B140F069
:1051C0008000104B1B78984219D00F4A126812F4D5
:1051D000805F12D003F07F03082B02D100220B4B1B
:1051E0001A60002C0CBF4422602200F07F03082BC1
:1051F00003D142F44072054B1A60024B18705DF8FF
:10520000044B70478907FF1F348004400CC00440E2
:10521000704700BF10B50D4B1B6813F4805F12D0B0
:105220003F280CD80A4C0B4B53F830302360012137
:10523000FFF73AFA236800221A70012010BD0020FF
:10524000034B186010BD002010BD00BF3480044027
:105250008419FF1F7CDB00000D4B1B6813F4805F7B
:1052600013D00E280AD140F202320A4B1A600A4BC0
:105270005A7B42F001025A7301207047064B5A7B59
:1052800002F0FE025A73002070470020704700BFF2
:105290003480044004C0044000C006402DE9F041C1
:1052A00007461F4B1B6813F4805F37D01D4B1B68EC
:1052B0000BB101221A701C4B1C780134282C28BF1A
:1052C00000241A4D1A4EDFF86C8017E0FFF798F9AA
:1052D00040280FDC337913F0800F0FD02B78013387
:1052E000282B28BF002318F80320D2B2F271DBB2BA
:1052F0002B7003E0FF2801DD01F0D8F92B78DBB239
:105300009C42E3D0FFB20B4B1F5501220A4B1A708F
:10531000E4B2054B1C70AC22054BDA70BDE8F0819D
:1053200034800440F819FF1FFC19FF1FF519FF1FF7
:1053300000C006408C19FF1F8819FF1F38B50546AD
:105340000C4629B115F8010BFFF7A8FF013CF9D174
:1053500038BD00BF10B5064B1B7813F0FF0F06D009
:10536000034C01F0A3F9237813F0FF0FF9D110BD1E
:105370008819FF1F064B1B78DBB2064A1278D2B29F
:1053800093422CBF273202F1FF32D01A704700BF80
:10539000FC19FF1FF519FF1F054B1878C0B2054B0C
:1053A0001B78DBB2984238BF4030C01A704700BF4C
:1053B000F419FF1F8919FF1F10B4184B1A78D2B2C5
:1053C000174B1B78DBB29A4218D001333F2B18D809
:1053D0001449C85CC0B2DCB211490C7012490968AA
:1053E000C9B19A4203D300E00023D31A01E040324E
:1053F000D31A1A2B0FDC00230B700CE04FF0FF3098
:1054000009E0084B1878C0B20021054B1970064B13
:1054100019680029E8D15DF8044B7047F419FF1FA3
:105420008919FF1FB419FF1F8419FF1F094B1A7830
:10543000D2B2094B1B78DBB29A4207D00133402B22
:1054400028BF0023054AD05CC0B270474FF0FF3040
:10545000704700BFF419FF1F8919FF1FB419FF1F00
:10546000054B1A78D2B2054B1A70054B1B680BB16D
:1054700000221A70704700BF8919FF1FF419FF1F1F
:105480008419FF1F2F4B1B7913F0200F23D02D4BB6
:10549000DB79D9B22C4B1B780133402B28BF00237A
:1054A0002A4A1278D2B29A4204D0294AD154D9B2A7
:1054B000254A1170274A116869B1274A1278D2B279
:1054C00093422EBFC2EB0303C2F140029B18272B6D
:1054D000C4BF01230B701B4BDB78DBB213F0800FD2
:1054E0001CD0184A127912F0800F17D01B4A11787D
:1054F000C9B2194A1278D2B2914203D16C21114A31
:10550000D1700BE00132282A28BF00221449885CA0
:10551000C0B20C49C871D2B20F490A7013F0400FE3
:105520000ED0084B1B7913F0400F09D000220D4B11
:105530001A700D4B1B6803B11A702C22014BDA70E4
:10554000704700BF00C00640F419FF1F8919FF1FF4
:10555000B419FF1F8419FF1FF519FF1FFC19FF1F46
:105560008C19FF1F8819FF1FF819FF1F30B40E4B4D
:105570001B7843F002020D4C04EBC20460600C483F
:10558000007800280CBF8824C82444EA0141074D54
:1055900045F8321080F00100054A107083F00103D5
:1055A000014A137030BC7047681AFF1F0000FF1FCC
:1055B000E11AFF1F10B4431E032B11D872B60A4A1A
:1055C00052F8230050B14268074941F82320074AA6
:1055D00032F813400188611A22F8131062B600E015
:1055E00000205DF8044B7047581AFF1F901DFF1FE5
:1055F000013803280DD872B6074B53F820302BB171
:10560000002001305B68002BFBD100E0002062B677
:1056100070470020704700BFAC1AFF1F38B572B644
:1056200001231B491B4C5A1812F8012C12F0080FC9
:1056300024D09A0054F832506DB9164B03EBC201D6
:1056400008304860144943F83210144B1A78013A74
:105650001A7062B638BD42F0010254F832506DB98A
:105660000C4B03EBC201083048600D4943F832107F
:105670000A4B1A78013A1A7062B638BD0133052B0D
:10568000D1D162B60022054B1A7000F03DFC38BD46
:1056900018DE00000000FF1F88004000D61AFF1F20
:1056A000C800400010B4431E032B37D8400140F01F
:1056B00010001C4A104472B61B4AD25C032A09D857
:1056C000DFE802F019021B050830022216E008305C
:1056D000042213E0154A52F823201AB9134A42F85B
:1056E000231003E0124A52F823205160104A42F876
:1056F000231062B612E0032200E005220A4CE254B5
:1057000001F10803436000F00803002B0CBF88235D
:10571000C8230A8843EA0243036062B65DF8044B7B
:10572000704700BF0000FF1F141AFF1FAC1AFF1FB5
:10573000BC1AFF1F2DE9F84FA34CDFF8E092DFF809
:10574000E0A2DFF8E0B22578EDB215F0040F1DD02D
:105750009E4B1B7813F0FF0F16D09D4B1B7803F068
:10576000FF022BB1531EDBB2994A137003B900BE7E
:10577000984B1B7803F0FF0233B1531EDBB2954AFE
:1057800013700BB900F01EFD0423237015F0080FF1
:1057900000F0E48299F80030DBB21D0940F021826C
:1057A0008D4D9E0805EBC6035A6855F83630C3F395
:1057B0008303013B0C2B00F21082DFE813F0CB01D6
:1057C000CB010E020E020E020E020E020E02E801C4
:1057D0000E020E020E020D00804913680B60526823
:1057E0004A607F4A45F8362000227E490A607A499D
:1057F0000A618A6101217C4A11709BB240F2816288
:10580000934218D8B3F5D06F2ED2B3F5817F00F054
:105810001E8106D8802B00F0C980822B00F0CC803E
:1058200066E140F20232934200F02681B3F5A06FA8
:1058300000F062815CE142F22102934200F0868135
:1058400007D8B3F5086F00F0AB80B3F5106F11D037
:105850004EE142F22122934200F0418142F2213294
:10586000934200F0498143E1604B5D68002D40F0B8
:10587000188130E1594B9A78544B1A70564D05F106
:1058800080062B6A13F0800F03D0686A083800F096
:105890003BFB0835B542F4D1DFF88C810026374652
:1058A000534AB05828B1456800F02EFB0DB1284688
:1058B000F9E700234E4973504E4AB3504E4BF0580F
:1058C00028B1456800F020FB0DB12846F9E7002318
:1058D00049497350494AB35028F8023F484BFB5C92
:1058E000023B032B0AD8DFE803F00206020600227F
:1058F000434BDA5502E00122414BDA5501370436B9
:10590000102ECDD100223F4B1A7001253E4EDFF8FC
:105910001C81314F05EB080313F8013C06F8043BEA
:1059200013F0080F2DD000F0CFFA48B1A90007EB13
:10593000451200F108035360344A47F8312007E06C
:10594000AB00002247F833202E4B1A7801321A7030
:1059500000F0BAFA58B1AB0043F0010307EBC30102
:1059600000F108024A601E4A47F8332009E0AB0004
:1059700043F00103002247F83320224B1A7801320A
:105980001A70AA0042F00201002347F8313042F0B9
:10599000030247F8323001351D4B9E42BAD11EE258
:1059A0000A4B1B781B4D2B700127AAE0194D0023D1
:1059B0002B706B700227A4E0084B9B88042B37D90F
:1059C0000F22154B1A70C1E080200740E01AFF1F1C
:1059D000691AFF1FE21AFF1F0000FF1FCC1AFF1FEA
:1059E000C8004000001AFF1FE11AFF1F1CDE000064
:1059F000581AFF1F041AFF1FAC1AFF1FBC1AFF1F03
:105A0000141AFF1FD61AFF1FC42007408800400049
:105A1000D4200740D81AFF1FC0200740902007401D
:105A200094200740982007408E1DFF1F18DE0000BD
:105A3000A04A0021117051709F4A12F8233013F0D0
:105A4000020F5CD09B4D01232B70022759E09B4B2A
:105A50009B8803F07F03042B02DC984A52881AB11A
:105A60000F22954B1A7071E0934A12F8231021F01F
:105A7000020102F82310B2E1904B9B8803F07F03F0
:105A8000042B02DC8D4A52881AB10F228A4B1A70FD
:105A90005CE0894A12F8231041F0020102F8231059
:105AA0009DE1864B5E889F88854BA3F10C021146D1
:105AB00033F80C0CB04209D133F80A0CB84205D1C6
:105AC000360A032E0CBF2F7817891AE00D690C33A4
:105AD0000C32002DEBD10F22774B1A7036E0794B48
